:100000000C942A000C9447000C9447000C94470071
:100010000C9447000C9447000C9447000C94AE1DC0
:100020000C9447000C947B1D0C9447000C944700E3
:100030000C9447000C9447000C9447000C94470024
:100040000C9447000C9447000C9447000C94470014
:100050000C94470011241FBECFE5D8E0DEBFCDBF12
:1000600011E0A0E6B0E0E4EEFFE302C005900D92DF
:10007000A23EB107D9F711E0A2EEB1E001C01D9296
:10008000A73FB107E1F70E94A3050C94F01F0C9461
:100090000000EF92FF920F931F937B018C0120E0F1
:1000A00030E040E05FE40E94490388238CF0C801FF
:1000B000B70120E030E040E05FE40E94C1010E940F
:1000C000A9039B01AC01205030404040504806C07D
:1000D000C801B7010E94A9039B01AC01B901CA0183
:1000E0001F910F91FF90EF900895A0E0B0E0EBE733
:1000F000F0E00C94741FDC012B01FA019C9192300A
:1001000008F439C1EB018881823008F433C194309E
:1001100069F4843009F02FC111969C91119789815F
:10012000981709F428C1A6ECB1E025C1843009F480
:1001300021C18230A9F4923009F01DC19A01AD01AC
:1001400088E0EA010990AE01E90109929E0181501F
:10015000C1F7E201898111969C918923818308C1AD
:10016000923009F407C112962D903C901397EB0141
:100170008A819B811496AD90BD90CD90DC901797AD
:10018000EC80FD800E811F819101281B390BB90184
:1001900037FF04C066277727621B730B6032710537
:1001A0000CF061C0121613066CF537014801062EDB
:1001B00004C096948794779467940A94D2F721E0C8
:1001C00030E040E050E004C0220F331F441F551FB1
:1001D0006A95D2F721503040404050402E213F21B7
:1001E00040235123211531054105510521F021E01E
:1001F00030E040E050E079018A01E628F72808293C
:1002000019293CC0232BD1F1260E371E350146019A
:10021000062E04C096948794779467940A94D2F734
:1002200021E030E040E050E004C0220F331F441FC3
:10023000551F6A95D2F721503040404050402A2146
:100240003B214C215D21211531054105510521F04E
:1002500021E030E040E050E059016A01A628B728CB
:10026000C828D9280BC0821593052CF01C01AA249C
:10027000BB24650103C0EE24FF24870111969C91E5
:10028000D20111968C91981709F445C0992339F041
:10029000A80197012A193B094C095D0906C0A6016E
:1002A00095012E193F09400B510B57FD08C01182D3
:1002B0003382228224833583468357831DC081E0A5
:1002C00081833382228288279927DC01821B930B4A
:1002D000A40BB50B84839583A683B7830DC0220F2F
:1002E000331F441F551F24833583468357838281E0
:1002F000938101979383828324813581468157813D
:10030000DA01C9010197A109B1098F5F9F4FAF4F72
:10031000BF4328F30BC0918333822282EA0CFB1C7B
:100320000C1D1D1DE482F5820683178383E0808304
:10033000248135814681578157FF1AC0C901AA27F8
:1003400097FDA095BA2F81709070A070B0705695EF
:10035000479537952795822B932BA42BB52B848318
:100360009583A683B7838281938101969383828349
:10037000DF0101C0D201CD01CDB7DEB7E2E10C94BF
:10038000901FA0E2B0E0E7ECF1E00C94801F6983DD
:100390007A838B839C832D833E834F835887E9E048
:1003A000EE2EF12CEC0EFD1ECE010196B7010E943F
:1003B000D2048E010F5E1F4FCE010596B8010E9438
:1003C000D2048A8991E089278A8BC701B801AE01DE
:1003D000475E5F4F0E9475000E94FD03A096E6E015
:1003E0000C949C1FA0E2B0E0E8EFF1E00C94801FB9
:1003F00069837A838B839C832D833E834F835887C5
:10040000F9E0EF2EF12CEC0EFD1ECE010196B701A6
:100410000E94D2048E010F5E1F4FCE010596B801D7
:100420000E94D204C701B801AE01475E5F4F0E942F
:1004300075000E94FD03A096E6E00C949C1FA0E2CC
:10044000B0E0E5E2F2E00C94741F69837A838B8359
:100450009C832D833E834F835887CE010196BE0136
:10046000675F7F4F0E94D204CE010596BE016F5E8A
:100470007F4F0E94D2049985923088F0898982301A
:10048000C8F0943019F4823051F404C0843029F457
:10049000923081F486EC91E0C6C0923049F420E0BD
:1004A0009A858A89981321E02A87CE010996BBC0D4
:1004B000823049F420E09A858A89981321E02A8BBA
:1004C000CE014196B0C02D843E844F8458886D88FB
:1004D0007E888F88988CEE24FF248701AA24BB2471
:1004E000650140E050E060E070E0E0E0F0E0C10174
:1004F00081709070892BE9F0E60CF71C081D191D1E
:100500009A01AB012A0D3B1D4C1D5D1D80E090E062
:10051000A0E0B0E0E614F7040805190520F481E036
:1005200090E0A0E0B0E0BA01A901480F591F6A1F8E
:100530007B1FAA0CBB1CCC1CDD1C97FE08C081E0F5
:1005400090E0A0E0B0E0A82AB92ACA2ADB2A3196B6
:10055000E032F10549F0660C771C881C991C569412
:10056000479437942794C3CFFA85EA892B893C892D
:100570008B859C85280F391F2E5F3F4F17C0CA01FE
:1005800081709070892B61F016950795F794E79428
:1005900080E090E0A0E0B0E8E82AF92A0A2B1B2BC3
:1005A00076956795579547952F5F3F4F77FDE7CF36
:1005B0000CC0440F551F661F771F17FD4160EE0CDE
:1005C000FF1C001F111F21503040403090E05907A0
:1005D00090E0690790E4790760F32B8F3C8FDB0193
:1005E000CA018F779070A070B07080349105A1051A
:1005F000B10561F447FD0AC0E114F10401051105DC
:1006000029F0405C5F4F6F4F7F4F40781A8EFE1786
:1006100011F081E08A8F4D8F5E8F6F8F78A383E01A
:10062000898FCE0149960E94FD03A096E2E10C94C9
:10063000901FA8E1B0E0EFE1F3E00C94801F698324
:100640007A838B839C832D833E834F83588789E0F5
:10065000E82EF12CEC0EFD1ECE010196B7010E9492
:10066000D2048E010F5E1F4FCE010596B8010E9485
:10067000D2048985823040F08989823028F0C70110
:10068000B8010E944A0501C08FEF6896E6E00C941D
:100690009C1FA8E1B0E0EFE4F3E00C94801F6983B5
:1006A0007A838B839C832D833E834F83588789E095
:1006B000E82EF12CEC0EFD1ECE010196B7010E9432
:1006C000D2048E010F5E1F4FCE010596B8010E9425
:1006D000D2048985823040F08989823028F0C701B0
:1006E000B8010E944A0501C08FEF6896E6E00C94BD
:1006F0009C1FA8E1B0E0EFE7F3E00C94801F698352
:100700007A838B839C832D833E834F83588789E034
:10071000E82EF12CEC0EFD1ECE010196B7010E94D1
:10072000D2048E010F5E1F4FCE010596B8010E94C4
:10073000D2048985823040F08989823028F0C7014F
:10074000B8010E944A0501C081E06896E6E00C9479
:100750009C1FACE0B0E0EFEAF3E00C94841F6983E7
:100760007A838B839C83CE010196BE016B5F7F4FA2
:100770000E94D2048D81823061F1823050F1843048
:1007800021F48E81882351F12EC02F81388537FDC9
:1007900020C06E812F3131051CF06623F9F023C093
:1007A0008EE190E0821B930B29853A854B855C8511
:1007B00004C056954795379527958A95D2F76623B5
:1007C000B1F050954095309521953F4F4F4F5F4F79
:1007D0000EC020E030E040E050E009C02FEF3FEFD6
:1007E0004FEF5FE704C020E030E040E050E8B9019F
:1007F000CA012C96E2E00C94A01FDF92EF92FF92C8
:100800000F931F93FC01E480F58006811781D1804E
:100810008081823048F480E090E0A0E1B0E0E82AF6
:10082000F92A0A2B1B2BA5C0843009F49FC0823003
:1008300021F4EE24FF24870105C0E114F104010531
:10084000110519F4E0E0F0E096C0628173819FEF3A
:10085000623879070CF05BC022E83FEF261B370BAC
:100860002A3131052CF020E030E040E050E02AC091
:10087000B801A701022E04C0769567955795479554
:100880000A94D2F781E090E0A0E0B0E004C0880FC5
:10089000991FAA1FBB1F2A95D2F70197A109B10979
:1008A0008E219F21A023B1230097A105B10521F03E
:1008B00081E090E0A0E0B0E09A01AB01282B392B59
:1008C0004A2B5B2BDA01C9018F779070A070B07052
:1008D00080349105A105B10539F427FF09C0205CDA
:1008E0003F4F4F4F5F4F04C0215C3F4F4F4F5F4F13
:1008F000E0E0F0E02030A0E03A07A0E04A07A0E402
:100900005A0710F0E1E0F0E079018A0127C0603871
:10091000710564F5FB01E158FF4FD801C7018F77DE
:100920009070A070B07080349105A105B10539F4C4
:10093000E7FE0DC080E490E0A0E0B0E004C08FE3EB
:1009400090E0A0E0B0E0E80EF91E0A1F1B1F17FFA1
:1009500005C016950795F794E794319687E01695AC
:100960000795F794E7948A95D1F705C0EE24FF2404
:100970008701EFEFF0E06E2F679566276795902F60
:100980009F77D794DD24D7948E2F8695492F462BB9
:10099000582F5D29B701CA011F910F91FF90EF9069
:1009A000DF900895FC01DB01408151812281622F9B
:1009B0006F7770E0221F2227221F9381892F880FD3
:1009C000822B282F30E0991F9927991F11969C930D
:1009D000119721153105A9F54115510561057105DD
:1009E00011F482E037C082E89FEF13969C938E93B8
:1009F00012979A01AB0167E0220F331F441F551F66
:100A00006A95D1F783E08C930DC0220F331F441FEA
:100A1000551F12968D919C911397019713969C9355
:100A20008E931297203080E0380780E0480780E4FA
:100A3000580758F314962D933D934D935C93179755
:100A400008952F3F310579F4411551056105710570
:100A500019F484E08C93089564FF03C081E08C93C3
:100A600012C01C9210C02F57304013963C932E9307
:100A7000129783E08C9387E0440F551F661F771F02
:100A80008A95D1F7706414964D935D936D937C9322
:100A9000179708951F93DC01FB019C91923008F495
:100AA00047C08081823008F443C0943051F41196DD
:100AB0001C91843099F58181682F70E0611B710968
:100AC0003FC0843021F0923031F48230B9F181811D
:100AD000882389F12DC011961C9111978230F1F075
:100AE00081811817D9F412962D913C911397828128
:100AF00093818217930794F028173907BCF0149656
:100B00008D919D910D90BC91A02D248135814681C0
:100B10005781281739074A075B0718F4112341F05A
:100B20000AC082179307A407B50740F4112319F0F0
:100B300061E070E005C06FEF7FEF02C060E070E041
:100B4000CB011F9108950F931F93DF93CF93CDB7E0
:100B5000DEB7CB54D0400FB6F894DEBF0FBECDBF8A
:100B60000E94D80880E690E00E94CA1CFE01ED5B5E
:100B7000FF4F80E090E0AAE7B4E480839183A283F2
:100B8000B3838E01015C1F4FFE01ED5BFF4F60815F
:100B900071818281938120E030E04AEF54E40E9429
:100BA0001F02DC01CB01F80180839183A283B38310
:100BB000FE01FF96608171818281938120E030E0A7
:100BC00040E85FE30E94790388232CF481E090E001
:100BD0009EAF8DAF46C0FE01FF966081718182811C
:100BE000938120E03FEF4FE757E40E941903181666
:100BF00064F5FE01ED5BFF4F60817181828193811D
:100C000020E030E040E251E40E941F02DC01CB0111
:100C1000BC01CD010E944900DC01CB019EAF8DAF2C
:100C20000FC088EC90E09CAF8BAF8BAD9CAD019773
:100C3000F1F79CAF8BAF8DAD9EAD01979EAF8DAFA1
:100C40008DAD9EAD009769F716C0FE01FF966081DD
:100C50007181828193810E944900DC01CB019EAFAA
:100C60008DAF8DAD9EAD9AAF89AF89AD9AAD01972D
:100C7000F1F79AAF89AF0E94340A0E94711D8BE68A
:100C800090E00E94CA1C81E060E00E94F31C89E7AA
:100C900090E00E94CA1C0E940912FE01E55BFF4F12
:100CA000808380E090E0AAEFB3E48DAB9EABAFAB66
:100CB000B8AF6DA97EA98FA998AD20E030E04AEFCA
:100CC00054E40E941F02DC01CB0189AB9AABABABB1
:100CD000BCAB69A97AA98BA99CA920E030E040E8C7
:100CE0005FE30E94790388232CF481E090E098ABC5
:100CF0008FA73FC069A97AA98BA99CA920E03FEFE3
:100D00004FE757E40E94190318164CF56DA97EA908
:100D10008FA998AD20E030E040E251E40E941F022C
:100D2000DC01CB01BC01CD010E944900DC01CB01FB
:100D300098AB8FA70FC088EC90E09EA78DA78DA5DC
:100D40009EA50197F1F79EA78DA78FA598A901975A
:100D500098AB8FA78FA598A9009769F714C069A9C8
:100D60007AA98BA99CA90E944900DC01CB0198AB10
:100D70008FA78FA598A99CA78BA78BA59CA501974A
:100D8000F1F79CA78BA784E00E94C01E0E94D71E8B
:100D90008330E1F7FE01E55BFF4F80810E94C01EBA
:100DA000FE01E55BFF4F80818B3209F037C1FE0108
:100DB000E75BFF4F1182108216C0FE01E75BFF4F19
:100DC00080819181FC01E951FE4F82E38083DE0145
:100DD000A75BBF4FFE01E75BFF4F808191810196CA
:100DE00011969C938E93FE01E75BFF4F808191816A
:100DF0008530910514F387EE91E00E941C0984EE82
:100E000091E00E9449098091E401863009F07BC09D
:100E10000E94711D89E890E00E94CA1C80E090E069
:100E2000AAEFB3E48FA398A7A9A7BAA76FA178A543
:100E300089A59AA520E030E04AEF54E40E941F0201
:100E4000DC01CB018BA39CA3ADA3BEA36BA17CA1B2
:100E50008DA19EA120E030E040E85FE30E9479038D
:100E600088232CF481E090E09AA389A33FC06BA172
:100E70007CA18DA19EA120E03FEF4FE757E40E94A7
:100E8000190318164CF56FA178A589A59AA520E03D
:100E900030E040E251E40E941F02DC01CB01BC01C2
:100EA000CD010E944900DC01CB019AA389A30FC0A8
:100EB00088EC90E098A38F8F8F8D98A10197F1F720
:100EC00098A38F8F89A19AA101979AA389A389A139
:100ED0009AA1009769F714C06BA17CA18DA19EA176
:100EE0000E944900DC01CB019AA389A389A19AA1A0
:100EF0009E8F8D8F8D8D9E8D0197F1F79E8F8D8F9B
:100F00000E94630BBACE8091E401853009F0B5CE22
:100F10000E94711D8BE990E00E94CA1C80E090E065
:100F2000AAEFB3E4898F9A8FAB8FBC8F698D7A8DCE
:100F30008B8D9C8D20E030E04AEF54E40E941F022C
:100F4000DC01CB018D8B9E8BAF8BB88F6D897E8939
:100F50008F89988D20E030E040E85FE30E947903BC
:100F600088232CF481E090E09C8B8B8B3FC06D89B3
:100F70007E898F89988D20E03FEF4FE757E40E94EC
:100F8000190318164CF5698D7A8D8B8D9C8D20E098
:100F900030E040E251E40E941F02DC01CB01BC01C1
:100FA000CD010E944900DC01CB019C8B8B8B0FC0D3
:100FB00088EC90E09A8B898B89899A890197F1F75F
:100FC0009A8B898B8B899C8901979C8B8B8B8B89C6
:100FD0009C89009769F714C06D897E898F89988DE7
:100FE0000E944900DC01CB019C8B8B8B8B899C89F7
:100FF000988B8F878F8598890197F1F7988B8F87CA
:101000000E94400C8093E4018091E401863019F441
:101010000E94630B32CE0E94840E2FCEFE01E55B50
:10102000FF4F80818D3209F028CEFE01E95BFF4F32
:101030001182108216C0FE01E95BFF4F8081918111
:10104000FC01E951FE4F89E38083DE01A95BBF4FBC
:10105000FE01E95BFF4F80819181019611969C937F
:101060008E93FE01E95BFF4F808191818530910570
:1010700014F387EE91E00E941C0984EE91E00E9437
:1010800049098091E401863041F40E94711D89E88C
:1010900090E00E94CA1C0E94340A8091E4018530CD
:1010A00009F0EBCD0E94711D8BE990E00E94CA1CF3
:1010B00080E090E0AAEFB3E48B879C87AD87BE8782
:1010C0006B857C858D859E8520E030E04AEF54E479
:1010D0000E941F02DC01CB018F839887A987BA8702
:1010E0006F81788589859A8520E030E040E85FE36C
:1010F0000E94790388232CF481E090E09E838D8305
:101100003FC06F81788589859A8520E03FEF4FE762
:1011100057E40E94190318164CF56B857C858D8564
:101120009E8520E030E040E251E40E941F02DC0195
:10113000CB01BC01CD010E944900DC01CB019E83A3
:101140008D830FC088EC90E09C838B838B819C8186
:101150000197F1F79C838B838D819E8101979E83FC
:101160008D838D819E81009769F714C06F8178858A
:1011700089859A850E944900DC01CB019E838D837D
:101180008D819E819A83898389819A810197F1F764
:101190009A8389830E94400C8093E4018091E4014A
:1011A000863019F40E94340A68CD0E94840E65CD01
:1011B000DF93CF93CDB7DEB72C970FB6F894DEBF91
:1011C0000FBECDBF0E941813CE0101969987888764
:1011D000EEECF1E0FB87EA87F7E0FC87EA85FB8528
:1011E00000808A859B8501969B878A87E885F9859B
:1011F0000082888599850196998788879C8591507A
:101200009C87EC85EE2351F7CE0101960E94571E74
:10121000AFE5B0E0EFE5F0E0808180688C9384E397
:101220009CE00E94451E2C960FB6F894DEBF0FBEC0
:10123000CDBFCF91DF910895DF93CF9300D000D041
:10124000CDB7DEB79C838B831A82198216C084E0E7
:101250000E94C01E0E94D71E8330E1F729813A8187
:101260008B819C81FC01E20FF31F80810E94C01ED4
:1012700089819A8101969A83898389819A818530AF
:1012800091052CF30F900F900F900F90CF91DF915D
:101290000895DF93CF9300D0CDB7DEB79A838983CB
:1012A0000E94D71E8330E1F784E00E94C01E0E9496
:1012B000D71EE981FA8180830F900F90CF91DF9143
:1012C0000895DF93CF93CDB7DEB764970FB6F89448
:1012D000DEBF0FBECDBF9C8B8B8B1A8A198A188AF2
:1012E0001F86AFC00E940912882F90E0988B8F87CD
:1012F0008F8598898A309105D4F48F8598899923B0
:10130000B4F029893A898B899C89FC01E20FF31F8B
:101310008F858083998981E0692F0E94F31C8AE27E
:101320000E944F1889899A8901969A8B898B80E04F
:1013300090E8ABEBB4E48B879C87AD87BE876B8569
:101340007C858D859E8520E030E04AEF54E40E9444
:101350001F02DC01CB018F839887A987BA876F8131
:10136000788589859A8520E030E040E85FE30E9437
:10137000790388232CF481E090E09E838D833FC025
:101380006F81788589859A8520E03FEF4FE757E4A4
:101390000E94190318164CF56B857C858D859E85FA
:1013A00020E030E040E251E40E941F02DC01CB016A
:1013B000BC01CD010E944900DC01CB019E838D83DD
:1013C0000FC088EC90E09C838B838B819C8101977C
:1013D000F1F79C838B838D819E8101979E838D8302
:1013E0008D819E81009769F714C06F81788589850A
:1013F0009A850E944900DC01CB019E838D838D81FB
:101400009E819A83898389819A810197F1F79A83D2
:10141000898380E064E00E94A1108130D1F380E0F4
:1014200065E00E94A1108130A1F380E066E00E9497
:10143000A110813071F380E067E00E94A11081303B
:1014400041F389899A89853091050CF44BCF0E942C
:1014500009128D33E1F764960FB6F894DEBF0FBE24
:10146000CDBFCF91DF910895DF93CF93CDB7DEB796
:101470006C970FB6F894DEBF0FBECDBF0E94711DF2
:101480008DEA90E00E94CA1C87EE91E00E946109FB
:101490000E94711D85EC90E00E94CA1C81EF91E0D2
:1014A0000E94610987EE91E00E941C0981EF91E0A2
:1014B0000E941C0984EE91E00E9449098091E40198
:1014C000863009F079C00E94711D85EE90E00E947F
:1014D000CA1C80E090E0AAE7B4E4898F9A8FAB8FB2
:1014E000BC8F698D7A8D8B8D9C8D20E030E04AEF2A
:1014F00054E40E941F02DC01CB018D8B9E8BAF8BCD
:10150000B88F6D897E898F89988D20E030E040E822
:101510005FE30E94790388232CF481E090E09C8BA8
:101520008B8B3FC06D897E898F89988D20E03FEF3E
:101530004FE757E40E94190318164CF5698D7A8D10
:101540008B8D9C8D20E030E040E251E40E941F0230
:10155000DC01CB01BC01CD010E944900DC01CB01C3
:101560009C8B8B8B0FC088EC90E09A8B898B898940
:101570009A890197F1F79A8B898B8B899C890197BE
:101580009C8B8B8B8B899C89009769F793C06D89A5
:101590007E898F89988D0E944900DC01CB019C8B4C
:1015A0008B8B8B899C89988B8F878F8598890197E6
:1015B000F1F7988B8F877EC08091E401853009F028
:1015C0005DCF0E94711D84E091E00E94CA1C80E002
:1015D00090E0AAE7B4E48B879C87AD87BE876B85D4
:1015E0007C858D859E8520E030E04AEF54E40E94A2
:1015F0001F02DC01CB018F839887A987BA876F818F
:10160000788589859A8520E030E040E85FE30E9494
:10161000790388232CF481E090E09E838D833FC082
:101620006F81788589859A8520E03FEF4FE757E401
:101630000E94190318164CF56B857C858D859E8557
:1016400020E030E040E251E40E941F02DC01CB01C7
:10165000BC01CD010E944900DC01CB019E838D833A
:101660000FC088EC90E09C838B838B819C810197D9
:10167000F1F79C838B838D819E8101979E838D835F
:101680008D819E81009769F7F9CE6F817885898574
:101690009A850E944900DC01CB019E838D838D8158
:1016A0009E819A83898389819A810197F1F79A8330
:1016B0008983E4CE6C960FB6F894DEBF0FBECDBF23
:1016C000CF91DF910895DF93CF93CDB7DEB76997C0
:1016D0000FB6F894DEBF0FBECDBFCE010F969E8B26
:1016E0008D8BE5EDF1E0F88FEF8BF6E0F98FEF8968
:1016F000F88D00808F89988D0196988F8F8BED895A
:10170000FE8900828D899E8901969E8B8D8B998D95
:101710009150998FE98DEE2351F70E94711D81E25E
:1017200091E00E94CA1CCE010F960E94E11D80919B
:10173000E2018530E0F30E94711D83E391E00E9495
:10174000CA1C8091E2018630E0F30E94711D84E49E
:1017500091E00E94CA1C8091E2018B30E0F30E946C
:10176000711D84E591E00E94CA1C80E090E0AAE728
:10177000B4E48B879C87AD87BE876B857C858D8520
:101780009E8520E030E04AEF54E40E941F02DC0115
:10179000CB018F839887A987BA876F8178858985E0
:1017A0009A8520E030E040E85FE30E9479038823D7
:1017B0002CF481E090E09E838D833FC06F8178851B
:1017C00089859A8520E03FEF4FE757E40E9419038F
:1017D00018164CF56B857C858D859E8520E030E064
:1017E00040E251E40E941F02DC01CB01BC01CD01AB
:1017F0000E944900DC01CB019E838D830FC088ECE1
:1018000090E09C838B838B819C810197F1F79C8373
:101810008B838D819E8101979E838D838D819E8197
:10182000009769F714C06F81788589859A850E9431
:101830004900DC01CB019E838D838D819E819A833B
:10184000898389819A810197F1F79A8389830E941C
:101850002D1E1092E20169960FB6F894DEBF0FBEFE
:10186000CDBFCF91DF910895DF93CF93CDB7DEB792
:101870008091E2018F5F8093E201CF91DF91089523
:10188000DF93CF93CDB7DEB7E9970FB6F894DEBFFD
:101890000FBECDBF0E94711D8DEA90E00E94CA1C50
:1018A00087EE91E00E94610987EE91E00E941C0999
:1018B00084EE91E00E9449098091E401853009F0AD
:1018C00099C10E94711D83E691E00E94CA1C80E0CC
:1018D00090E0AAEFB3E48DAB9EABAFABB8AF6DA910
:1018E0007EA98FA998AD20E030E04AEF54E40E9431
:1018F0001F02DC01CB0189AB9AABABABBCAB69A9D6
:101900007AA98BA99CA920E030E040E85FE30E941F
:10191000790388232CF481E090E098AB8FA73FC037
:1019200069A97AA98BA99CA920E03FEF4FE757E46A
:101930000E94190318164CF56DA97EA98FA998ADC0
:1019400020E030E040E251E40E941F02DC01CB01C4
:10195000BC01CD010E944900DC01CB0198AB8FA7EF
:101960000FC088EC90E09EA78DA78DA59EA501973E
:10197000F1F79EA78DA78FA598A9019798AB8FA780
:101980008FA598A9009769F714C069A97AA98BA9AE
:101990009CA90E944900DC01CB0198AB8FA78FA5C1
:1019A00098A99CA78BA78BA59CA50197F1F79CA74D
:1019B0008BA78DEA90E00E94CA1C87EE91E00E94FE
:1019C000610987EE91E00E941C0984EE91E00E947B
:1019D00049098091E401853009F08EC00E94711D93
:1019E00083E691E00E94CA1C80E090E0AAEFB3E495
:1019F0008FA398A7A9A7BAA76FA178A589A59AA52B
:101A000020E030E04AEF54E40E941F02DC01CB01E9
:101A10008BA39CA3ADA3BEA36BA17CA18DA19EA112
:101A200020E030E040E85FE30E94790388232CF453
:101A300081E090E09AA389A33FC06BA17CA18DA116
:101A40009EA120E03FEF4FE757E40E9419031816CC
:101A50004CF56FA178A589A59AA520E030E040E279
:101A600051E40E941F02DC01CB01BC01CD010E94A8
:101A70004900DC01CB019AA389A30FC088EC90E058
:101A800098A38F8F8F8D98A10197F1F798A38F8FCF
:101A900089A19AA101979AA389A389A19AA10097E4
:101AA00069F714C06BA17CA18DA19EA10E94490081
:101AB000DC01CB019AA389A389A19AA19E8F8D8F66
:101AC0008D8D9E8D0197F1F79E8F8D8F0E94711DD8
:101AD00085E791E00E94CA1C87EE91E00E946109AF
:101AE00087EE91E00E941C0984EE91E00E94490972
:101AF0008091E40189AFFEC08091E401863009F055
:101B0000F6C00E94711D8DE991E00E94CA1C80E020
:101B100090E0AAEFB3E4898F9A8FAB8FBC8F698D69
:101B20007A8D8B8D9C8D20E030E04AEF54E40E944A
:101B30001F02DC01CB018D8B9E8BAF8BB88F6D8923
:101B40007E898F89988D20E030E040E85FE30E9435
:101B5000790388232CF481E090E09C8B8B8B3FC031
:101B60006D897E898F89988D20E03FEF4FE757E49C
:101B70000E94190318164CF5698D7A8D8B8D9C8DFA
:101B800020E030E040E251E40E941F02DC01CB0182
:101B9000BC01CD010E944900DC01CB019C8B8B8BE9
:101BA0000FC088EC90E09A8B898B89899A8901977C
:101BB000F1F79A8B898B8B899C8901979C8B8B8BF6
:101BC0008B899C89009769F792C06D897E898F897E
:101BD000988D0E944900DC01CB019C8B8B8B8B89FB
:101BE0009C89988B8F878F8598890197F1F7988BBF
:101BF0008F877DC08091E401863009F078C00E9413
:101C0000711D8DE991E00E94CA1C80E090E0AAEF6E
:101C1000B3E48B879C87AD87BE876B857C858D857C
:101C20009E8520E030E04AEF54E40E941F02DC0170
:101C3000CB018F839887A987BA876F81788589853B
:101C40009A8520E030E040E85FE30E947903882332
:101C50002CF481E090E09E838D833FC06F81788576
:101C600089859A8520E03FEF4FE757E40E941903EA
:101C700018164CF56B857C858D859E8520E030E0BF
:101C800040E251E40E941F02DC01CB01BC01CD0106
:101C90000E944900DC01CB019E838D830FC088EC3C
:101CA00090E09C838B838B819C810197F1F79C83CF
:101CB0008B838D819E8101979E838D838D819E81F3
:101CC000009769F714C06F81788589859A850E948D
:101CD0004900DC01CB019E838D838D819E819A8397
:101CE000898389819A810197F1F79A838983809109
:101CF000E40189AF89ADE9960FB6F894DEBF0FBE57
:101D0000CDBFCF91DF910895DF93CF93CDB7DEB7ED
:101D10002B970FB6F894DEBF0FBECDBFCE01019654
:101D200098878F83EBEDF1E0FA87E987F6E0FB8790
:101D3000E985FA85008089859A8501969A87898741
:101D4000EF81F88500828F819885019698878F832F
:101D50009B8591509B87EB85EE2351F70E94711D67
:101D60008DEA91E00E94CA1C1092E201CE01019618
:101D70000E94E11D8091E2018230E0F30E94711D1A
:101D80000E942D1E2B960FB6F894DEBF0FBECDBF5E
:101D9000CF91DF910895DF93CF9300D000D00F92C1
:101DA000CDB7DEB789836A834B838A81883008F098
:101DB000D5C08981843008F0D1C08981282F30E0D6
:101DC0003D832C838C819D818130910509F443C032
:101DD0002C813D81223031052CF48C819D8100972E
:101DE00071F0BCC02C813D812230310509F45FC007
:101DF0008C819D818330910509F485C0AFC08B81B2
:101E00008130A1F4AAE3B0E0EAE3F0E08081482F5A
:101E10008A81282F30E081E090E0022E02C0880FF6
:101E2000991F0A94E2F7842B8C9398C0AAE3B0E040
:101E3000EAE3F0E08081482F8A81282F30E081E0BA
:101E400090E0022E02C0880F991F0A94E2F7809555
:101E500084238C9383C08B818130A1F4A7E3B0E00D
:101E6000E7E3F0E08081482F8A81282F30E081E08D
:101E700090E0022E02C0880F991F0A94E2F7842B8B
:101E80008C936CC0A7E3B0E0E7E3F0E08081482FDB
:101E90008A81282F30E081E090E0022E02C0880F76
:101EA000991F0A94E2F7809584238C9357C08B8105
:101EB0008130A1F4A4E3B0E0E4E3F0E08081482FB6
:101EC0008A81282F30E081E090E0022E02C0880F46
:101ED000991F0A94E2F7842B8C9340C0A4E3B0E0EE
:101EE000E4E3F0E08081482F8A81282F30E081E010
:101EF00090E0022E02C0880F991F0A94E2F78095A5
:101F000084238C932BC08B818130A1F4A1E3B0E0BA
:101F1000E1E3F0E08081482F8A81282F30E081E0E2
:101F200090E0022E02C0880F991F0A94E2F7842BDA
:101F30008C9314C0A1E3B0E0E1E3F0E08081482F8E
:101F40008A81282F30E081E090E0022E02C0880FC5
:101F5000991F0A94E2F7809584238C930F900F9039
:101F60000F900F900F90CF91DF910895DF93CF9353
:101F700000D000D00F92CDB7DEB789836A834B8340
:101F80008A81883008F0D5C08981843008F0D1C0BA
:101F90008981282F30E03D832C838C819D81813085
:101FA000910509F443C02C813D81223031052CF488
:101FB0008C819D81009771F0BCC02C813D812230C5
:101FC000310509F45FC08C819D818330910509F44E
:101FD00085C0AFC08B818130A1F4ABE3B0E0EBE30F
:101FE000F0E08081482F8A81282F30E081E090E066
:101FF000022E02C0880F991F0A94E2F7842B8C935B
:1020000098C0ABE3B0E0EBE3F0E08081482F8A8139
:10201000282F30E081E090E0022E02C0880F991F47
:102020000A94E2F7809584238C9383C08B8181305E
:10203000A1F4A8E3B0E0E8E3F0E08081482F8A81D2
:10204000282F30E081E090E0022E02C0880F991F17
:102050000A94E2F7842B8C936CC0A8E3B0E0E8E329
:10206000F0E08081482F8A81282F30E081E090E0E5
:10207000022E02C0880F991F0A94E2F780958423EC
:102080008C9357C08B818130A1F4A5E3B0E0E5E3E8
:10209000F0E08081482F8A81282F30E081E090E0B5
:1020A000022E02C0880F991F0A94E2F7842B8C93AA
:1020B00040C0A5E3B0E0E5E3F0E08081482F8A81ED
:1020C000282F30E081E090E0022E02C0880F991F97
:1020D0000A94E2F7809584238C932BC08B81813006
:1020E000A1F4A2E3B0E0E2E3F0E08081482F8A812E
:1020F000282F30E081E090E0022E02C0880F991F67
:102100000A94E2F7842B8C9314C0A2E3B0E0E2E3DC
:10211000F0E08081482F8A81282F30E081E090E034
:10212000022E02C0880F991F0A94E2F7809584233B
:102130008C930F900F900F900F900F90CF91DF9195
:102140000895DF93CF9300D000D00F92CDB7DEB7C4
:102150008A836B8319828B81883008F084C08A81DE
:10216000843008F080C08A81282F30E03D832C83A2
:102170004C815D814130510579F18C819D818230A6
:10218000910534F42C813D812115310569F06BC036
:102190004C815D8142305105B9F18C819D81833044
:1021A000910509F449C05FC0E9E3F0E08081282F80
:1021B00030E08B81882F90E0A90102C055954795AA
:1021C0008A95E2F7CA0181709070882319F081E046
:1021D000898349C0198247C0E6E3F0E08081282F57
:1021E00030E08B81882F90E0A90102C0559547957A
:1021F0008A95E2F7CA0181709070882319F081E016
:10220000898331C019822FC0E3E3F0E08081282F59
:1022100030E08B81882F90E0A90102C05595479549
:102220008A95E2F7CA0181709070882319F081E0E5
:10223000898319C0198217C0E0E3F0E08081282F5C
:1022400030E08B81882F90E0A90102C05595479519
:102250008A95E2F7CA0181709070882319F081E0B5
:10226000898301C0198289810F900F900F900F9080
:102270000F90CF91DF910895DF93CF9300D000D0DE
:10228000CDB7DEB789836A838981843090F58981EF
:10229000282F30E03C832B838B819C8181309105FA
:1022A000D1F02B813C81223031052CF48B819C8133
:1022B000009761F01EC02B813C812230310581F0F6
:1022C0008B819C818330910581F013C0EAE3F0E0BB
:1022D0008A8180830EC0E7E3F0E08A81808309C0B1
:1022E000E4E3F0E08A81808304C0E1E3F0E08A81E6
:1022F00080830F900F900F900F90CF91DF910895F2
:10230000DF93CF9300D000D0CDB7DEB789836A8347
:102310008981843090F58981282F30E03C832B839C
:102320008B819C8181309105D1F02B813C812230C1
:1023300031052CF48B819C81009761F01EC02B81AC
:102340003C812230310581F08B819C818330910565
:1023500081F013C0EBE3F0E08A8180830EC0E8E3F4
:10236000F0E08A81808309C0E5E3F0E08A81808320
:1023700004C0E2E3F0E08A8180830F900F900F9019
:102380000F90CF91DF910895DF93CF9300D000D0CD
:10239000CDB7DEB78A8319828A81843090F58A812D
:1023A000282F30E03C832B838B819C8181309105E9
:1023B000D1F02B813C81223031052CF48B819C8122
:1023C000009761F01EC02B813C812230310581F0E5
:1023D0008B819C818330910581F013C0E9E3F0E0AB
:1023E000808189830EC0E6E3F0E08081898309C0A3
:1023F000E3E3F0E08081898304C0E0E3F0E08081E2
:10240000898389810F900F900F900F90CF91DF916A
:102410000895DF93CF9300D0CDB7DEB780E060E0C2
:1024200040E00E94CB0E80E061E040E00E94CB0ED5
:1024300080E062E040E00E94CB0E80E063E040E09C
:102440000E94CB0E80E064E040E00E94CB0E80E072
:1024500065E040E00E94CB0E80E066E040E00E9434
:10246000CB0E80E067E040E00E94CB0E198235C0C1
:1024700080E0698141E00E94CB0E80E0698140E00C
:102480000E94B60F1A821EC08A81982F9C5F80E03E
:10249000692F0E94A110882391F48981882F90E0F0
:1024A000880F991F880F991F982F8A81890F8F5F36
:1024B0000E9471120F900F90CF91DF9108958A8141
:1024C0008F5F8A838A818430F8F280E0698140E0FE
:1024D0000E94CB0E89818F5F89838981843040F28D
:1024E000C5CFDF93CF9300D000D0CDB7DEB78A83BE
:1024F00019828A81282F30E03C832B838B819C8139
:102500008830910509F470C02B813C812930310558
:102510005CF58B819C818430910509F459C02B8135
:102520003C81253031059CF48B819C818230910562
:1025300009F448C02B813C81233031050CF045C0A3
:102540008B819C818130910509F439C067C02B8152
:102550003C812630310509F441C08B819C81873054
:1025600091050CF03EC037C02B813C812C303105E9
:1025700009F446C08B819C818D3091055CF42B81E0
:102580003C812A303105B1F18B819C818B309105E2
:10259000A4F52DC02B813C812E303105B9F18B8102
:1025A0009C818E3091057CF12B813C812F3031054F
:1025B00079F18B819C818031910569F12FC087E091
:1025C00089832EC088E089832BC089E0898328C055
:1025D00085E2898325C084E0898322C085E08983E0
:1025E0001FC086E089831CC08AE2898319C081E00C
:1025F000898316C082E0898313C083E0898310C079
:102600008DE289830DC08DE089830AC0198208C0DC
:102610008DE3898305C08BE2898302C08A81898327
:1026200089810F900F900F900F90CF91DF910895B7
:10263000DF93CF93CDB7DEB72E970FB6F894DEBFFA
:102640000FBECDBF82E064E041E00E94CB0E82E08D
:1026500066E041E00E94CB0E82E065E041E00E942E
:10266000CB0E82E065E040E00E94B60F80E090E093
:10267000A0EAB1E48B879C87AD87BE876B857C859C
:102680008D859E8520E030E04AEF54E40E941F02D1
:10269000DC01CB018F839887A987BA876F81788502
:1026A00089859A8520E030E040E85FE30E94790365
:1026B00088232CF481E090E09E838D833FC06F815E
:1026C000788589859A8520E03FEF4FE757E40E949F
:1026D000190318164CF56B857C858D859E8520E049
:1026E00030E040E251E40E941F02DC01CB01BC015A
:1026F000CD010E944900DC01CB019E838D830FC078
:1027000088EC90E09C838B838B819C810197F1F70F
:102710009C838B838D819E8101979E838D838D8188
:102720009E81009769F714C06F81788589859A85A5
:102730000E944900DC01CB019E838D838D819E81A7
:102740009A83898389819A810197F1F79A83898392
:1027500082E060E041E00E94CB0E82E061E041E077
:102760000E94CB0E82E062E041E00E94CB0E82E04C
:1027700063E041E00E94CB0E83E30E94D41382E326
:102780000E94D41388E20E94D4138CE00E94D413D8
:1027900081E00E94D4132E960FB6F894DEBF0FBED0
:1027A000CDBFCF91DF9108950F931F93DF93CF9308
:1027B000CDB7DEB7C356D0400FB6F894DEBF0FBE1C
:1027C000CDBFFE01ED59FF4F808382E064E040E021
:1027D0000E94B60FFE01E15AFF4F80E090E0A0E8B2
:1027E000BFE380839183A283B3838E01055A1F4F79
:1027F000FE01E15AFF4F608171818281938120E067
:1028000030E04AEF54E40E941F02DC01CB01F801E2
:1028100080839183A283B383FE01E55AFF4F6081D9
:1028200071818281938120E030E040E85FE30E9483
:102830007903882344F4FE01E75AFF4F81E090E0DA
:102840009183808364C0FE01E55AFF4F60817181EE
:102850008281938120E03FEF4FE757E40E94190304
:1028600018160CF043C0FE01E15AFF4F60817181E0
:102870008281938120E030E040E251E40E941F0217
:10288000DC01CB018E01075A1F4FBC01CD010E9414
:102890004900DC01CB01F801918380831FC0FE0158
:1028A000E95AFF4F88EC90E091838083FE01E95A5A
:1028B000FF4F808191810197F1F7FE01E95AFF4FA7
:1028C00091838083DE01A75ABF4FFE01E75AFF4F75
:1028D00080819181019711969C938E93FE01E75A16
:1028E000FF4F808191810097D1F627C08E01075A52
:1028F0001F4FFE01E55AFF4F6081718182819381F4
:102900000E944900DC01CB01F80191838083DE0144
:10291000AB5ABF4FFE01E75AFF4F808191818D93E3
:102920009C93FE01EB5AFF4F808191810197F1F753
:10293000FE01EB5AFF4F9183808382E066E041E025
:102940000E94B60FFE01EF5AFF4F80E090E0A0E832
:10295000BFE380839183A283B3838E01035B1F4F08
:10296000FE01EF5AFF4F608171818281938120E0E7
:1029700030E04AEF54E40E941F02DC01CB01F80171
:1029800080839183A283B383FE01E35BFF4F608169
:1029900071818281938120E030E040E85FE30E9412
:1029A0007903882344F4FE01E55BFF4F81E090E06A
:1029B0009183808364C0FE01E35BFF4F608171817E
:1029C0008281938120E03FEF4FE757E40E94190393
:1029D00018160CF043C0FE01EF5AFF4F6081718161
:1029E0008281938120E030E040E251E40E941F02A6
:1029F000DC01CB018E01055B1F4FBC01CD010E94A4
:102A00004900DC01CB01F801918380831FC0FE01E6
:102A1000E75BFF4F88EC90E091838083FE01E75BEA
:102A2000FF4F808191810197F1F7FE01E75BFF4F36
:102A300091838083DE01A55BBF4FFE01E55BFF4F05
:102A400080819181019711969C938E93FE01E55BA5
:102A5000FF4F808191810097D1F627C08E01055BE1
:102A60001F4FFE01E35BFF4F608171818281938183
:102A70000E944900DC01CB01F80191838083DE01D3
:102A8000A95BBF4FFE01E55BFF4F808191818D9374
:102A90009C93FE01E95BFF4F808191810197F1F7E3
:102AA000FE01E95BFF4F91838083FE01ED59FF4FEB
:102AB0008081882F90E0807190709595879595958D
:102AC00087959595879595958795982F82E060E0F5
:102AD000492F0E94B60FFE01ED59FF4F8081882FCC
:102AE00090E08072907095958795959587959595CE
:102AF00087959595879595958795982F82E061E0C4
:102B0000492F0E94B60FFE01ED59FF4F8081882F9B
:102B100090E080749070082E892F000C881F990B0C
:102B2000000C881F991F982F82E062E0492F0E94B5
:102B3000B60FFE01ED59FF4F8081982F991F9927FD
:102B4000991F82E063E0492F0E94B60FFE01ED5B02
:102B5000FF4F80E090E0A0E8BFE380839183A283F1
:102B6000B3838E01015C1F4FFE01ED5BFF4F60815F
:102B700071818281938120E030E04AEF54E40E9429
:102B80001F02DC01CB01F80180839183A283B38310
:102B9000FE01FF96608171818281938120E030E0A7
:102BA00040E85FE30E94790388232CF481E090E001
:102BB0009EAF8DAF46C0FE01FF966081718182811C
:102BC000938120E03FEF4FE757E40E941903181666
:102BD00064F5FE01ED5BFF4F60817181828193811D
:102BE00020E030E040E251E40E941F02DC01CB0112
:102BF000BC01CD010E944900DC01CB019EAF8DAF2D
:102C00000FC088EC90E09CAF8BAF8BAD9CAD019773
:102C1000F1F79CAF8BAF8DAD9EAD01979EAF8DAFA1
:102C20008DAD9EAD009769F716C0FE01FF966081DD
:102C30007181828193810E944900DC01CB019EAFAA
:102C40008DAF8DAD9EAD9AAF89AF89AD9AAD01972D
:102C5000F1F79AAF89AF82E066E040E00E94B60FDC
:102C600080E090E0A0E8BFE38DAB9EABAFABB8AF28
:102C70006DA97EA98FA998AD20E030E04AEF54E419
:102C80000E941F02DC01CB0189AB9AABABABBCABA2
:102C900069A97AA98BA99CA920E030E040E85FE30C
:102CA0000E94790388232CF481E090E098AB8FA7F1
:102CB0003FC069A97AA98BA99CA920E03FEF4FE703
:102CC00057E40E94190318164CF56DA97EA98FA927
:102CD00098AD20E030E040E251E40E941F02DC01A8
:102CE000CB01BC01CD010E944900DC01CB0198ABB6
:102CF0008FA70FC088EC90E09EA78DA78DA59EA5FD
:102D00000197F1F79EA78DA78FA598A9019798AB7A
:102D10008FA78FA598A9009769F714C069A97AA908
:102D20008BA99CA90E944900DC01CB0198AB8FA71D
:102D30008FA598A99CA78BA78BA59CA50197F1F7B8
:102D40009CA78BA782E066E041E00E94B60F80E07E
:102D500090E0A0E8BFE38FA398A7A9A7BAA76FA1A7
:102D600078A589A59AA520E030E04AEF54E40E94B6
:102D70001F02DC01CB018BA39CA3ADA3BEA36BA15F
:102D80007CA18DA19EA120E030E040E85FE30E949D
:102D9000790388232CF481E090E09AA389A33FC0B3
:102DA0006BA17CA18DA19EA120E03FEF4FE757E4EE
:102DB0000E94190318164CF56FA178A589A59AA54C
:102DC00020E030E040E251E40E941F02DC01CB0130
:102DD000BC01CD010E944900DC01CB019AA389A36B
:102DE0000FC088EC90E098A38F8F8F8D98A10197EA
:102DF000F1F798A38F8F89A19AA101979AA389A32C
:102E000089A19AA1009769F714C06BA17CA18DA13B
:102E10009EA10E944900DC01CB019AA389A389A14C
:102E20009AA19E8F8D8F8D8D9E8D0197F1F79E8F2C
:102E30008D8FFE01ED59FF4F8081982F917082E0B8
:102E400060E0492F0E94B60FFE01ED59FF4F8081CF
:102E5000882F90E08270907095958795982F82E0EA
:102E600061E0492F0E94B60FFE01ED59FF4F8081AE
:102E7000882F90E0847090709595879595958795AB
:102E8000982F82E062E0492F0E94B60FFE01ED59B3
:102E9000FF4F8081882F90E088709070959587957E
:102EA0009595879595958795982F82E063E0492FB2
:102EB0000E94B60F80E090E0A0E8BFE3898F9A8F70
:102EC000AB8FBC8F698D7A8D8B8D9C8D20E030E02F
:102ED0004AEF54E40E941F02DC01CB018D8B9E8BD4
:102EE000AF8BB88F6D897E898F89988D20E030E017
:102EF00040E85FE30E94790388232CF481E090E0AE
:102F00009C8B8B8B3FC06D897E898F89988D20E04B
:102F10003FEF4FE757E40E94190318164CF5698DEF
:102F20007A8D8B8D9C8D20E030E040E251E40E9450
:102F30001F02DC01CB01BC01CD010E944900DC0174
:102F4000CB019C8B8B8B0FC088EC90E09A8B898B8C
:102F500089899A890197F1F79A8B898B8B899C894A
:102F600001979C8B8B8B8B899C89009769F714C088
:102F70006D897E898F89988D0E944900DC01CB0183
:102F80009C8B8B8B8B899C89988B8F878F8598895D
:102F90000197F1F7988B8F8782E066E040E00E940E
:102FA000B60F80E090E0A0E8BFE38B879C87AD87F9
:102FB000BE876B857C858D859E8520E030E04AEF5D
:102FC00054E40E941F02DC01CB018F839887A987FC
:102FD000BA876F81788589859A8520E030E040E85E
:102FE0005FE30E94790388232CF481E090E09E83C4
:102FF0008D833FC06F81788589859A8520E03FEF7A
:103000004FE757E40E94190318164CF56B857C8531
:103010008D859E8520E030E040E251E40E941F0251
:10302000DC01CB01BC01CD010E944900DC01CB01D8
:103030009E838D830FC088EC90E09C838B838B8173
:103040009C810197F1F79C838B838D819E810197F1
:103050009E838D838D819E81009769F714C06F8157
:10306000788589859A850E944900DC01CB019E8381
:103070008D838D819E819A83898389819A8101972D
:10308000F1F79A838983CD59DF4F0FB6F894DEBFED
:103090000FBECDBFCF91DF911F910F9108950F9378
:1030A0001F93DF93CF93CDB7DEB7C356D0400FB693
:1030B000F894DEBF0FBECDBFFE01ED59FF4F8083F8
:1030C00082E064E041E00E94B60FFE01E15AFF4F4A
:1030D00080E090E0A0E8BFE380839183A283B38384
:1030E0008E01055A1F4FFE01E15AFF4F6081718129
:1030F0008281938120E030E04AEF54E40E941F0275
:10310000DC01CB01F80180839183A283B383FE01AC
:10311000E55AFF4F608171818281938120E030E028
:1031200040E85FE30E947903882344F4FE01E75AF4
:10313000FF4F81E090E09183808364C0FE01E55AF7
:10314000FF4F608171818281938120E03FEF4FE7E3
:1031500057E40E94190318160CF043C0FE01E15A0F
:10316000FF4F608171818281938120E030E040E2F5
:1031700051E40E941F02DC01CB018E01075A1F4F50
:10318000BC01CD010E944900DC01CB01F801918313
:1031900080831FC0FE01E95AFF4F88EC90E09183C5
:1031A0008083FE01E95AFF4F808191810197F1F7F9
:1031B000FE01E95AFF4F91838083DE01A75ABF4F7A
:1031C000FE01E75AFF4F80819181019711969C93F0
:1031D0008E93FE01E75AFF4F808191810097D1F6CF
:1031E00027C08E01075A1F4FFE01E55AFF4F60812D
:1031F0007181828193810E944900DC01CB01F80139
:1032000091838083DE01AB5ABF4FFE01E75AFF4F27
:10321000808191818D939C93FE01EB5AFF4F8081B9
:1032200091810197F1F7FE01EB5AFF4F9183808363
:1032300082E066E041E00E94B60FFE01EF5AFF4FC8
:1032400080E090E0A0E8BFE380839183A283B38312
:103250008E01035B1F4FFE01EF5AFF4F60817181AA
:103260008281938120E030E04AEF54E40E941F0203
:10327000DC01CB01F80180839183A283B383FE013B
:10328000E35BFF4F608171818281938120E030E0B8
:1032900040E85FE30E947903882344F4FE01E55B84
:1032A000FF4F81E090E09183808364C0FE01E35B87
:1032B000FF4F608171818281938120E03FEF4FE772
:1032C00057E40E94190318160CF043C0FE01EF5A90
:1032D000FF4F608171818281938120E030E040E284
:1032E00051E40E941F02DC01CB018E01055B1F4FE0
:1032F000BC01CD010E944900DC01CB01F8019183A2
:1033000080831FC0FE01E75BFF4F88EC90E0918354
:103310008083FE01E75BFF4F808191810197F1F788
:10332000FE01E75BFF4F91838083DE01A55BBF4F0A
:10333000FE01E55BFF4F80819181019711969C937F
:103340008E93FE01E55BFF4F808191810097D1F65E
:1033500027C08E01055B1F4FFE01E35BFF4F6081BD
:103360007181828193810E944900DC01CB01F801C7
:1033700091838083DE01A95BBF4FFE01E55BFF4FB8
:10338000808191818D939C93FE01E95BFF4F808149
:1033900091810197F1F7FE01E95BFF4F91838083F3
:1033A000FE01ED59FF4F8081882F90E08071907071
:1033B00095958795959587959595879595958795F5
:1033C000982F82E060E0492F0E94B60FFE01ED5970
:1033D000FF4F8081882F90E080729070959587953F
:1033E00095958795959587959595879595958795C5
:1033F000982F82E061E0492F0E94B60FFE01ED593F
:10340000FF4F8081882F90E080749070082E892F64
:10341000000C881F990B000C881F991F982F82E0C1
:1034200062E0492F0E94B60FFE01ED59FF4F8081E7
:10343000982F991F9927991F82E063E0492F0E94D6
:10344000B60FFE01ED5BFF4F80E090E0A0E8BFE328
:1034500080839183A283B3838E01015C1F4FFE01A1
:10346000ED5BFF4F608171818281938120E030E0CC
:103470004AEF54E40E941F02DC01CB01F801808373
:103480009183A283B383FE01FF9660817181828163
:10349000938120E030E040E85FE30E9479038823D5
:1034A0002CF481E090E09EAF8DAF46C0FE01FF9608
:1034B000608171818281938120E03FEF4FE757E483
:1034C0000E941903181664F5FE01ED5BFF4F608141
:1034D00071818281938120E030E040E251E40E94DA
:1034E0001F02DC01CB01BC01CD010E944900DC01BF
:1034F000CB019EAF8DAF0FC088EC90E09CAF8BAF3F
:103500008BAD9CAD0197F1F79CAF8BAF8DAD9EADB0
:1035100001979EAF8DAF8DAD9EAD009769F716C038
:10352000FE01FF9660817181828193810E94490032
:10353000DC01CB019EAF8DAF8DAD9EAD9AAF89AF53
:1035400089AD9AAD0197F1F79AAF89AF82E066E055
:1035500040E00E94B60F80E090E0A0E8BFE38DABB2
:103560009EABAFABB8AF6DA97EA98FA998AD20E097
:1035700030E04AEF54E40E941F02DC01CB0189AB2A
:103580009AABABABBCAB69A97AA98BA99CA920E08B
:1035900030E040E85FE30E94790388232CF481E067
:1035A00090E098AB8FA73FC069A97AA98BA99CA985
:1035B00020E03FEF4FE757E40E94190318164CF53F
:1035C0006DA97EA98FA998AD20E030E040E251E4DA
:1035D0000E941F02DC01CB01BC01CD010E94490009
:1035E000DC01CB0198AB8FA70FC088EC90E09EA7C1
:1035F0008DA78DA59EA50197F1F79EA78DA78FA5F5
:1036000098A9019798AB8FA78FA598A9009769F7FC
:1036100014C069A97AA98BA99CA90E944900DC0160
:10362000CB0198AB8FA78FA598A99CA78BA78BA53B
:103630009CA50197F1F79CA78BA782E066E041E08B
:103640000E94B60F80E090E0A0E8BFE38FA398A7A8
:10365000A9A7BAA76FA178A589A59AA520E030E00F
:103660004AEF54E40E941F02DC01CB018BA39CA310
:10367000ADA3BEA36BA17CA18DA19EA120E030E0F3
:1036800040E85FE30E94790388232CF481E090E016
:103690009AA389A33FC06BA17CA18DA19EA120E02C
:1036A0003FEF4FE757E40E94190318164CF56FA13E
:1036B00078A589A59AA520E030E040E251E40E9477
:1036C0001F02DC01CB01BC01CD010E944900DC01DD
:1036D000CB019AA389A30FC088EC90E098A38F8FA9
:1036E0008F8D98A10197F1F798A38F8F89A19AA147
:1036F00001979AA389A389A19AA1009769F714C099
:103700006BA17CA18DA19EA10E944900DC01CB018F
:103710009AA389A389A19AA19E8F8D8F8D8D9E8D4D
:103720000197F1F79E8F8D8FFE01ED59FF4F80813C
:10373000982F917082E060E0492F0E94B60FFE0141
:10374000ED59FF4F8081882F90E0827090709595A1
:103750008795982F82E061E0492F0E94B60FFE0105
:10376000ED59FF4F8081882F90E08470907095957F
:10377000879595958795982F82E062E0492F0E9462
:10378000B60FFE01ED59FF4F8081882F90E08870C1
:103790009070959587959595879595958795982F90
:1037A00082E063E0492F0E94B60F80E090E0A0E83D
:1037B000BFE3898F9A8FAB8FBC8F698D7A8D8B8D8C
:1037C0009C8D20E030E04AEF54E40E941F02DC01AF
:1037D000CB018D8B9E8BAF8BB88F6D897E898F8946
:1037E000988D20E030E040E85FE30E947903882371
:1037F0002CF481E090E09C8B8B8B3FC06D897E899F
:103800008F89988D20E03FEF4FE757E40E9419031E
:1038100018164CF5698D7A8D8B8D9C8D20E030E0EB
:1038200040E251E40E941F02DC01CB01BC01CD014A
:103830000E944900DC01CB019C8B8B8B0FC088EC74
:1038400090E09A8B898B89899A890197F1F79A8BF5
:10385000898B8B899C8901979C8B8B8B8B899C890D
:10386000009769F714C06D897E898F89988D0E94B1
:103870004900DC01CB019C8B8B8B8B899C89988BBD
:103880008F878F8598890197F1F7988B8F8782E0D2
:1038900066E040E00E94B60F80E090E0A0E8BFE361
:1038A0008B879C87AD87BE876B857C858D859E8544
:1038B00020E030E04AEF54E40E941F02DC01CB011B
:1038C0008F839887A987BA876F81788589859A853C
:1038D00020E030E040E85FE30E94790388232CF485
:1038E00081E090E09E838D833FC06F8178858985DC
:1038F0009A8520E03FEF4FE757E40E94190318161E
:103900004CF56B857C858D859E8520E030E040E21E
:1039100051E40E941F02DC01CB01BC01CD010E94D9
:103920004900DC01CB019E838D830FC088EC90E0C1
:103930009C838B838B819C810197F1F79C838B8384
:103940008D819E8101979E838D838D819E810097BD
:1039500069F714C06F81788589859A850E9449002E
:10396000DC01CB019E838D838D819E819A83898327
:1039700089819A810197F1F79A838983CD59DF4F25
:103980000FB6F894DEBF0FBECDBFCF91DF911F9170
:103990000F910895DF93CF9300D00F92CDB7DEB78C
:1039A0009B838A8319820EC08981282F30E08A8107
:1039B0009B81FC01E20FF31F80810E944F188981D7
:1039C0008F5F89838981282F30E08A819B81FC0168
:1039D000E20FF31F8081882339F70F900F900F902B
:1039E000CF91DF910895DF93CF9300D000D00F9255
:1039F000CDB7DEB78A836B838A81282F30E03D8381
:103A00002C838C819D8181309105C1F02C813D8179
:103A1000223031052CF48C819D81009761F019C012
:103A20002C813D812230310569F08C819D8183306C
:103A3000910561F00EC08B8189830BC08B81805C06
:103A4000898307C08B81805F898303C08B81805B02
:103A50008983898180680E94D4130F900F900F9002
:103A60000F900F90CF91DF910895DF93CF9300D007
:103A700000D0CDB7DEB789836A835C834B838981AD
:103A80006A810E94F31C8B819C810E94CA1C0F904A
:103A90000F900F900F90CF91DF910895DF93CF9308
:103AA000CDB7DEB762970FB6F894DEBF0FBECDBFBD
:103AB0009A8B898B89899A899E012F5F3F4FB90123
:103AC0004AE050E00E94AB1FCE0101960E94CA1C42
:103AD00062960FB6F894DEBF0FBECDBFCF91DF91D7
:103AE0000895DF93CF93CDB7DEB781E00E94D41362
:103AF000CF91DF9108951F920F920FB60F9211246C
:103B00002F933F934F935F936F937F938F939F93E5
:103B1000AF93BF93EF93FF93DF93CF93CDB7DEB710
:103B20008091E5019091E601009729F0E091E5018F
:103B3000F091E6010995CF91DF91FF91EF91BF914F
:103B4000AF919F918F917F916F915F914F913F9135
:103B50002F910F900FBE0F901F9018951F920F92EC
:103B60000FB60F9211242F933F934F935F936F9350
:103B70007F938F939F93AF93BF93EF93FF93DF93C5
:103B8000CF93CDB7DEB78091E5019091E601009724
:103B900029F0E091E501F091E6010995CF91DF91DF
:103BA000FF91EF91BF91AF919F918F917F916F9115
:103BB0005F914F913F912F910F900FBE0F901F90EB
:103BC0001895DF93CF9300D0CDB7DEB79A83898362
:103BD000ACE4B0E0E981FA818081918111969C93F7
:103BE0008E93E981FA8185818130E1F4AAE4B0E025
:103BF000E981FA818281938111969C938E93A9E544
:103C0000B0E0E9E5F0E0808180618C93EFE4F0E0E2
:103C100088E08083AEE4B0E0E981FA818481886045
:103C20008C9316C0E981FA818581882389F4A9E5FE
:103C3000B0E0E9E5F0E0808184608C93EFE4F0E0AF
:103C40008CE08083AEE4B0E0E981FA8184818C93DA
:103C50000F900F90CF91DF910895DF93CF93CDB761
:103C6000DEB7EFE4F0E01082EEE4F0E01082ECE486
:103C7000F0E011821082A9E5B0E0E9E5F0E0808192
:103C80008B7E8C93CF91DF910895DF93CF9300D0FB
:103C9000CDB7DEB79A83898389819A819093E601B3
:103CA0008093E5010F900F90CF91DF910895DF93FE
:103CB000CF9300D000D0CDB7DEB79C838B831A8220
:103CC0001982EBE2F0E082E08083EAE2F0E088E152
:103CD0008083A0E4B0E0EB81FC818681882F90E0B6
:103CE000880F991F282F2068EB81FC818581882F00
:103CF00090E0880F991F880F991F880F991F282B14
:103D0000EB81FC818481882F90E082959295907F51
:103D10009827807F9827822B8C93EB81FC81808170
:103D20009181A281B381880F991FAA1FBB1F880FA1
:103D3000991FAA1FBB1F880F991FAA1FBB1F9C0199
:103D4000AD0180E092E1AAE7B0E0BC01CD010E94A4
:103D5000521FDA01C90101979A838983E0E4F0E0F8
:103D600089819A81892F99278083E9E2F0E089810E
:103D700080830F900F900F900F90CF91DF91089557
:103D8000DF93CF930F92CDB7DEB78983EBE2F0E0FC
:103D90008081882F90E0807290700097B9F3ECE2F8
:103DA000F0E0898180830F90CF91DF910895DF93B8
:103DB000CF93CDB7DEB7EBE2F0E080818823DCF76C
:103DC000ECE2F0E08081CF91DF910895DF93CF9313
:103DD00000D00F92CDB7DEB79B838A8319820EC0C5
:103DE0008981282F30E08A819B81FC01E20FF31F3B
:103DF00080810E94C01E89818F5F89838981282FDD
:103E000030E08A819B81FC01E20FF31F80818823CF
:103E100039F70F900F900F90CF91DF9108950F9386
:103E20001F93DF93CF9300D00F92CDB7DEB79B8364
:103E30008A8319828981282F30E08A819B818C01B5
:103E4000020F131F0E94D71EF80180830FC08981C3
:103E50008F5F89838981282F30E08A819B818C0143
:103E6000020F131F0E94D71EF80180838981282F1B
:103E700030E08A819B81FC01E20FF31F8081833255
:103E800031F78981282F30E08A819B81FC01E20F84
:103E9000F31F10820F900F900F90CF91DF911F9121
:103EA0000F910895A1E21A2EAA1BBB1BFD010DC0A4
:103EB000AA1FBB1FEE1FFF1FA217B307E407F507DA
:103EC00020F0A21BB30BE40BF50B661F771F881FB6
:103ED000991F1A9469F760957095809590959B014C
:103EE000AC01BD01CF0108952F923F924F925F9296
:103EF0006F927F928F929F92AF92BF92CF92DF92FA
:103F0000EF92FF920F931F93CF93DF93CDB7DEB75E
:103F1000CA1BDB0B0FB6F894DEBF0FBECDBF0994F2
:103F20002A88398848885F846E847D848C849B8449
:103F3000AA84B984C884DF80EE80FD800C811B8157
:103F4000AA81B981CE0FD11D0FB6F894DEBF0FBE86
:103F5000CDBFED010895FB019F01E8944230C4F00C
:103F60004532B4F44A3029F497FB1EF490958195BC
:103F70009F4F642F77270E94DC1F805D8A330CF0EF
:103F8000895D8193CB010097A1F716F45DE251930F
:103F90001082C9010C94CC1FDC01FC01672F7191C8
:103FA0007723E1F7329704C07C916D93708362911F
:103FB000AE17BF07C8F30895AA1BBB1B51E107C08A
:103FC000AA1FBB1FA617B70710F0A61BB70B881FA9
:103FD000991F5A95A9F780959095BC01CD01089538
:043FE000F894FFCF83
:103FE40048692054686572652021002B203A204FCF
:103FF40070656E20446F6F72002D203A2043686113
:104004006E676520506173730056616C696420505B
:10401400617373776F7264203A2900496E76616C1C
:1040240069642050617373776F72642100506C650A
:1040340061736520456E7465722050617373776F88
:1040440072643A2000506C656173652072652D6559
:104054006E746572207468652073616D65205061AB
:104064007373203A0050617373776F7264204372E4
:104074006561746564205375636365737366756CF9
:104084006C79210050617373776F7264732041728D
:1040940065204E6F74204D61746368696E672121D9
:1040A40000446F6F7220697320556E6C6F636B6987
:1040B4006E6700446F6F7220697320556E6C6F6376
:1040C4006B656400446F6F72206973204C6F636B7F
:1040D400696E6700446F6F72206973204C6F636B65
:1040E400656400496E76616C69642050617373770E
:1040F4006F72642100506C6561736520456E746550
:10410400722050617373776F7264204F6E65204D17
:104114006F72652054696D6521203A200056616CE8
:1041240069642050617373776F7264200045727202
:104134006F72204E6F204D6F726520617474656DCF
:10414400707473212100000000000000000080252D
:1041540000000000030000B80B05010000307505E5
:02416400010058
:00000001FF
